:100000000C9462000C948A000C948A000C948A0070
:100010000C948A000C948A000C948A000C948A0038
:100020000C948A000C948A000C948A000C948A0028
:100030000C948A000C948A000C948A000C948A0018
:100040000C94F5030C948A000C94C3030C949D0348
:100050000C948A000C948A000C948A000C948A00F8
:100060000C948A000C948A000000000023002600F3
:10007000290000000008000201000003040700003E
:1000800000000000000000000000250028002B00F8
:1000900000000000240027002A00040404040404D3
:1000A0000404020202020202030303030303010227
:1000B00004081020408001020408102001020408F6
:1000C0001020C70511241FBECFEFD8E0DEBFCDBF83
:1000D00011E0A0E0B1E0E4EBF0E102C005900D9288
:1000E000A234B107D9F721E0A2E4B1E001C01D922A
:1000F000AC3EB207E1F710E0C2E6D0E004C02197C1
:10010000FE010E945208C136D107C9F70E943F0480
:100110000C9458080C940000AF92BF92CF92DF92DB
:10012000EF92FF920F931F93CF93DF936C017B01AC
:100130008B01040F151FEB015E01AE18BF08C0173D
:10014000D10759F06991D601ED91FC910190F081B0
:10015000E02DC6010995892B79F7C501DF91CF9173
:100160001F910F91FF90EF90DF90CF90BF90AF90D5
:100170000895FC01538D448D252F30E0842F90E0AD
:10018000821B930B541710F0CF9608950197089592
:10019000FC01918D828D981761F0A28DAE0FBF2F5B
:1001A000B11D5D968C91928D9F5F9F73928F90E0B1
:1001B00008958FEF9FEF0895FC01918D828D981720
:1001C00031F0828DE80FF11D858D90E008958FEF5D
:1001D0009FEF0895FC01918D228D892F90E0805C26
:1001E0009F4F821B91098F73992708958FE491E0A7
:1001F0000E94EA0021E0892B09F420E0822F089573
:1002000080E090E0892B29F00E94F60081110C9487
:1002100000000895FC01A48DA80FB92FB11DA35AA9
:10022000BF4F2C91848D90E001968F739927848F16
:10023000A689B7892C93A089B1898C918370806439
:100240008C93938D848D981306C00288F389E02DDA
:1002500080818F7D80830895EF92FF920F931F938B
:10026000CF93DF93EC0181E0888F9B8D8C8D981369
:100270001AC0E889F989808185FF15C09FB7F89475
:10028000EE89FF896083E889F989808183708064C1
:1002900080839FBF81E090E0DF91CF911F910F910C
:1002A000FF90EF900895F62E0B8D10E00F5F1F4F1B
:1002B0000F731127E02E8C8D8E110CC00FB607FC2A
:1002C000FACFE889F989808185FFF5CFCE010E94B8
:1002D0000A01F1CFEB8DEC0FFD2FF11DE35AFF4F1B
:1002E000F0829FB7F8940B8FEA89FB898081806246
:1002F000CFCFCF93DF93EC01888D8823B9F0AA8903
:10030000BB89E889F9898C9185FD03C0808186FDD0
:100310000DC00FB607FCF7CF8C9185FFF2CF80811F
:1003200085FFEDCFCE010E940A01E9CFDF91CF9189
:100330000895833081F028F4813099F08230A9F05B
:1003400008958730A9F08830C9F08430B1F48091E5
:1003500080008F7D03C0809180008F778093800024
:10036000089584B58F7784BD089584B58F7DFBCFC4
:100370008091B0008F778093B00008958091B00095
:100380008F7DF9CFCF93DF93282F30E0F901EE581E
:10039000FF4F8491F901E255FF4FD491F901E656E0
:1003A000FF4FC491CC23A1F081110E949901EC2F41
:1003B000F0E0EE0FFF1FE859FF4FA591B491EC91CB
:1003C000ED2381E090E009F480E0DF91CF91089582
:1003D00080E090E0FACF1F93CF93DF93282F30E097
:1003E000F901EE58FF4F8491F901E255FF4FD49186
:1003F000F901E656FF4FC491CC23A9F0162F8111C5
:100400000E949901EC2FF0E0EE0FFF1FEA57FF4F1B
:10041000A591B4918FB7F894EC91111108C0D095C3
:10042000DE23DC938FBFDF91CF911F910895DE2BE8
:10043000F8CF3FB7F8948091470190914801A0917F
:100440004901B0914A0126B5A89B05C02F3F19F07C
:100450000196A11DB11D3FBFBA2FA92F982F882744
:10046000BC01CD01620F711D811D911D42E0660F1F
:10047000771F881F991F4A95D1F708958F929F92F1
:10048000AF92BF92CF92DF92EF92FF924B015C014D
:100490000E9419026B017C010E9419026C197D09EE
:1004A0008E099F09683E734081059105A8F321E0FC
:1004B000821A9108A108B10888EEC80E83E0D81E00
:1004C000E11CF11C81149104A104B10429F7FF90EF
:1004D000EF90DF90CF90BF90AF909F908F90089556
:1004E000FC0101900020E9F73197AF01481B590B3F
:1004F000BC018FE491E00C948C008F929F92AF929C
:10050000BF920F931F93CF93DF93CDB7DEB7A19721
:100510000FB6F894DEBF0FBECDBF19A2423008F46B
:100520004AE08E010F5D1F4F842E912CB12CA12C1F
:10053000A50194010E943008E62FB901CA01EA30F2
:10054000F4F4E05DD801EE938D01232B242B252BB1
:1005500079F790E080E0109719F0CD010E947002C9
:10056000A1960FB6F894DEBF0FBECDBFDF91CF913D
:100570001F910F91BF90AF909F908F900895E95C6D
:10058000E1CF4F925F926F927F928F929F92AF9244
:10059000BF92CF92DF92EF92FF920F931F93CF9370
:1005A0006B017C01742EAC019B010E942B088823F7
:1005B00099F082E191E0CF911F910F91FF90EF9020
:1005C000DF90CF90BF90AF909F908F907F906F9073
:1005D0005F904F900C94700246015701E894B7F871
:1005E0002FEF3FEF4FE75FE7C501B4010E942B08F3
:1005F00081110DC02FEF3FEF4FE75FE7C501B40159
:100600000E94610618161CF486E191E0D4CF2FEF0A
:100610003FEF4FE75FE4C701B6010E94B907181624
:100620001CF48AE191E0C7CF2FEF3FEF4FE75FEC7B
:10063000C701B6010E94610687FDF3CF20E030E0DC
:10064000A901C701B6010E94610610E000E087FF22
:100650000AC06DE28FE491E00E942C018C01F7FA50
:10066000F094F7F8F094C0E060E070E080E09FE381
:100670007C1641F020E030E040E251E40E94660642
:10068000CF5FF6CFA70196010E94F5052B013C0133
:100690000E94D8064B015C014AE00E947D027C0169
:1006A000E00EF11ECC23C1F1C501B4010E94070781
:1006B0009B01AC01C301B2010E94F4054B015C0136
:1006C0006EE28FE491E00E942C01E80EF91EC15009
:1006D00018F120E030E040E251E4C501B4010E948D
:1006E000BE072B013C010E94D8064B01B12CA12C66
:1006F0004AE0C501B4010E947D02E80EF91EC50161
:10070000B4010E9407079B01AC01C301B2010E9422
:10071000F4054B015C01DBCFC701CF911F910F9115
:10072000FF90EF90DF90CF90BF90AF909F908F9011
:100730007F906F905F904F9008951F920F920FB629
:100740000F9211242F933F934F935F936F937F9357
:100750008F939F93AF93BF93EF93FF938FE491E0B9
:100760000E940A01FF91EF91BF91AF919F918F91EC
:100770007F916F915F914F913F912F910F900FBE9D
:100780000F901F9018951F920F920FB60F92112481
:100790002F938F939F93EF93FF93E0915F01F091DD
:1007A00060018081E0916501F091660182FD1BC0CE
:1007B0009081809168018F5F8F732091690182170A
:1007C00041F0E0916801F0E0E15BFE4F958F80938E
:1007D0006801FF91EF919F918F912F910F900FBE24
:1007E0000F901F9018958081F4CF1F920F920FB633
:1007F0000F9211242F933F938F939F93AF93BF93A7
:100800008091430190914401A0914501B09146012E
:100810003091420123E0230F2D3758F50196A11D99
:10082000B11D209342018093430190934401A09312
:100830004501B09346018091470190914801A091F4
:100840004901B0914A010196A11DB11D8093470154
:1008500090934801A0934901B0934A01BF91AF9191
:100860009F918F913F912F910F900FBE0F901F90EE
:10087000189526E8230F0296A11DB11DD2CFCF9364
:10088000DF9300D000D01F92CDB7DEB7789484B547
:10089000826084BD84B5816084BD85B5826085BD7C
:1008A00085B5816085BD80916E00816080936E000A
:1008B00010928100809181008260809381008091FC
:1008C00081008160809381008091800081608093AD
:1008D00080008091B10084608093B1008091B0006D
:1008E00081608093B00080917A00846080937A0068
:1008F00080917A00826080937A0080917A00816092
:1009000080937A0080917A00806880937A001092B8
:10091000C100E0915F01F091600182E08083E0918D
:100920005B01F0915C011082E0915D01F0915E014C
:100930008FEC808310926701E0916301F091640174
:1009400086E08083E0916101F091620180818061A5
:100950008083E0916101F0916201808188608083F1
:10096000E0916101F0916201808180688083E09173
:100970006101F091620180818F7D80835BE9252E8A
:10098000312C88248394912C70E0A72E70E0B72E30
:100990008EE191E00E94700219821A821B821C82F1
:1009A0001D82E2EBF0E02491EEE9F0E084918823EF
:1009B00099F090E0880F991FFC01E057FF4FA59137
:1009C000B491FC01EA57FF4F859194918FB7F89449
:1009D0009C91292B2C938FBF60E084E00E94EB0157
:1009E00062E170E080E090E00E943E0261E084E01D
:1009F0000E94EB01C1010197F1F7E2EBF0E04491B5
:100A0000EEE9F0E084918823C9F090E0880F991F07
:100A1000FC01E057FF4FA591B491FC01EA57FF4F4D
:100A2000259134915FB7F8949C91842F80959823F9
:100A30009C93F9019081892380835FBF01E117E2D4
:100A400084E00E94C201892B09F03FC001501109C6
:100A5000B9F781E291E00E94700260914B017091C0
:100A60004C01072E000C880B990B0E94090742E0ED
:100A70000E94C1028EE191E00E94700280E391E049
:100A80000E94700260914D0170914E01072E000C82
:100A9000880B990B0E94090742E00E94C1028EE177
:100AA00091E00E94700260ED77E080E090E00E94AB
:100AB0003E02A114B10409F46BCF0E94F600882312
:100AC00009F466CF0E94000063CF01E117E284E0E1
:100AD0000E94C201019721F401501109C1F7B9CF59
:100AE00028E2E22EF12C17E000E091E1C92E97E216
:100AF000D92E84E00E94C201892B29F4F1E0CF1A9B
:100B0000D108B9F7A6CF0E9419022B013C0181E15F
:100B1000C82E87E2D82E84E00E94C201019729F4F2
:100B200081E0C81AD108B9F794CF0E94190264195C
:100B3000750986099709693271058105910578F073
:100B4000E1E0F0E0EC0FFD1FE00FF11D808194016A
:100B5000012E01C0220F0A94EAF7822B8083111123
:100B600014C00F5F17E0E1E0EE1AF10809F0BDCF05
:100B7000898190E090934C0180934B018B8190E0B0
:100B800090934E0180934D0164CF1150ECCFEFE470
:100B9000F1E01382128288EE93E0A0E0B0E084835B
:100BA0009583A683B78384E091E09183808385EC6D
:100BB00090E09587848784EC90E09787868780EC27
:100BC00090E0918B808B81EC90E0938B828B82EC18
:100BD00090E0958B848B86EC90E0978B868B118EC2
:100BE000128E138E148E08955058BB27AA270E9488
:100BF0000C060C947F070E94710738F00E9478075A
:100C000020F039F49F3F19F426F40C946E070EF48B
:100C1000E095E7FB0C946807E92F0E94900758F3D2
:100C2000BA17620773078407950720F079F4A6F5D1
:100C30000C94B2070EF4E0950B2EBA2FA02D0B01E9
:100C4000B90190010C01CA01A0011124FF27591B11
:100C500099F0593F50F4503E68F11A16F040A22F17
:100C6000232F342F4427585FF3CF46953795279588
:100C7000A795F0405395C9F77EF41F16BA0B620B87
:100C8000730B840BBAF09150A1F0FF0FBB1F661FCE
:100C9000771F881FC2F70EC0BA0F621F731F841F11
:100CA00048F4879577956795B795F7959E3F08F037
:100CB000B0CF9395880F08F09927EE0F97958795F9
:100CC00008950E94440708F481E008950E947A067E
:100CD0000C947F070E94780758F00E94710740F03B
:100CE00029F45F3F29F00C94680751110C94B30765
:100CF0000C946E070E94900768F39923B1F3552373
:100D000091F3951B550BBB27AA276217730784071E
:100D100038F09F5F5F4F220F331F441FAA1FA9F3B4
:100D200035D00E2E3AF0E0E832D091505040E695A2
:100D3000001CCAF72BD0FE2F29D0660F771F881F03
:100D4000BB1F261737074807AB07B0E809F0BB0BF6
:100D5000802DBF01FF2793585F4F3AF09E3F51050A
:100D600078F00C9468070C94B3075F3FE4F3983E67
:100D7000D4F3869577956795B795F7959F5FC9F7F3
:100D8000880F911D9695879597F90895E1E0660F74
:100D9000771F881FBB1F621773078407BA0720F0ED
:100DA000621B730B840BBA0BEE1F88F7E095089556
:100DB0000E94980788F09F5798F0B92F9927B7514C
:100DC000B0F0E1F0660F771F881F991F1AF0BA95EF
:100DD000C9F714C0B13091F00E94B207B1E0089594
:100DE0000C94B207672F782F8827B85F39F0B93F86
:100DF000CCF3869577956795B395D9F73EF49095A2
:100E00008095709561957F4F8F4F9F4F0895E8941F
:100E100009C097FB3EF490958095709561957F4F42
:100E20008F4F9F4F9923A9F0F92F96E9BB279395F0
:100E3000F695879577956795B795F111F8CFFAF400
:100E4000BB0F11F460FF1BC06F5F7F4F8F4F9F4F31
:100E500016C0882311F096E911C0772321F09EE88F
:100E6000872F762F05C0662371F096E8862F70E0F5
:100E700060E02AF09A95660F771F881FDAF7880FCF
:100E80009695879597F90895990F0008550FAA0B25
:100E9000E0E8FEEF16161706E807F907C0F012168D
:100EA0001306E407F50798F0621B730B840B950B90
:100EB00039F40A2661F0232B242B252B21F40895E5
:100EC0000A2609F4A140A6958FEF811D811D089582
:100ED00097F99F6780E870E060E008959FEF80ECED
:100EE000089500240A941616170618060906089590
:100EF00000240A9412161306140605060895092EF6
:100F00000394000C11F4882352F0BB0F40F4BF2B64
:100F100011F460FF04C06F5F7F4F8F4F9F4F0895A4
:100F200057FD9058440F551F59F05F3F71F047959A
:100F3000880F97FB991F61F09F3F79F0879508957F
:100F4000121613061406551FF2CF4695F1DF08C09E
:100F5000161617061806991FF1CF869571056105BB
:100F600008940895E894BB2766277727CB0197F963
:100F700008950E94440708F48FEF08950E94D10756
:100F80000C947F070E94710738F00E94780720F0C8
:100F9000952311F00C9468070C946E0711240C949F
:100FA000B3070E94900770F3959FC1F3950F50E02F
:100FB000551F629FF001729FBB27F00DB11D639F0B
:100FC000AA27F00DB11DAA1F649F6627B00DA11DB1
:100FD000661F829F2227B00DA11D621F739FB00D57
:100FE000A11D621F839FA00D611D221F749F3327C7
:100FF000A00D611D231F849F600D211D822F762F60
:101000006A2F11249F5750409AF0F1F088234AF03C
:10101000EE0FFF1FBB1F661F771F881F91505040A8
:10102000A9F79E3F510580F00C9468070C94B30714
:101030005F3FE4F3983ED4F3869577956795B7952F
:10104000F795E7959F5FC1F7FE2B880F911D969549
:10105000879597F908950E944407880B990B089586
:10106000A1E21A2EAA1BBB1BFD010DC0AA1FBB1FAC
:10107000EE1FFF1FA217B307E407F50720F0A21B1E
:10108000B30BE40BF50B661F771F881F991F1A948B
:1010900069F760957095809590959B01AC01BD01B5
:1010A000CF010895EE0FFF1F0590F491E02D0994F4
:0410B000F894FFCFE2
:1010B400000000002C018C00B9007901EA00C8008E
:1010C400DC006E616E00696E66006F7666000D0A64
:1010D4000048756D6964697479202825293A2000CF
:1010E40054656D7065726174757265202843293A80
:0210F4002000DA
:00000001FF
